{
  "_format": "hh-sol-artifact-1",
  "contractName": "InformationMarket",
  "sourceName": "contracts/InformationMarket.sol",
  "abi": [
    {
      "inputs": [
        {
          "internalType": "uint256",
          "name": "_depositMultiple",
          "type": "uint256"
        },
        {
          "internalType": "uint256",
          "name": "_requiredStake",
          "type": "uint256"
        },
        {
          "internalType": "uint256",
          "name": "_randomNumber",
          "type": "uint256"
        },
        {
          "internalType": "uint256",
          "name": "_delayInMinutes",
          "type": "uint256"
        }
      ],
      "stateMutability": "nonpayable",
      "type": "constructor"
    },
    {
      "anonymous": false,
      "inputs": [],
      "name": "RandomNumberEvent",
      "type": "event"
    },
    {
      "anonymous": false,
      "inputs": [
        {
          "indexed": false,
          "internalType": "uint256",
          "name": "_requestId",
          "type": "uint256"
        }
      ],
      "name": "RequestHasChanged",
      "type": "event"
    },
    {
      "inputs": [
        {
          "internalType": "uint256",
          "name": "_requestId",
          "type": "uint256"
        },
        {
          "internalType": "address",
          "name": "_winningProvider",
          "type": "address"
        }
      ],
      "name": "arbitorPicksWinner",
      "outputs": [],
      "stateMutability": "nonpayable",
      "type": "function"
    },
    {
      "inputs": [
        {
          "internalType": "uint256",
          "name": "_requestId",
          "type": "uint256"
        }
      ],
      "name": "dispute",
      "outputs": [],
      "stateMutability": "payable",
      "type": "function"
    },
    {
      "inputs": [
        {
          "internalType": "uint256",
          "name": "_requestId",
          "type": "uint256"
        }
      ],
      "name": "getDeadlines",
      "outputs": [
        {
          "internalType": "uint256",
          "name": "",
          "type": "uint256"
        },
        {
          "internalType": "uint256",
          "name": "",
          "type": "uint256"
        },
        {
          "internalType": "uint256",
          "name": "",
          "type": "uint256"
        },
        {
          "internalType": "uint256",
          "name": "",
          "type": "uint256"
        },
        {
          "internalType": "uint256",
          "name": "",
          "type": "uint256"
        },
        {
          "internalType": "uint256",
          "name": "",
          "type": "uint256"
        }
      ],
      "stateMutability": "view",
      "type": "function"
    },
    {
      "inputs": [
        {
          "internalType": "uint256",
          "name": "_requestId",
          "type": "uint256"
        }
      ],
      "name": "getRequest",
      "outputs": [
        {
          "components": [
            {
              "components": [
                {
                  "internalType": "uint256",
                  "name": "basic",
                  "type": "uint256"
                },
                {
                  "internalType": "uint256",
                  "name": "initiator",
                  "type": "uint256"
                },
                {
                  "internalType": "uint256",
                  "name": "dispute",
                  "type": "uint256"
                },
                {
                  "internalType": "uint256",
                  "name": "arbitration",
                  "type": "uint256"
                },
                {
                  "internalType": "uint256",
                  "name": "payout",
                  "type": "uint256"
                }
              ],
              "internalType": "struct InformationMarket.Deadlines",
              "name": "deadlines",
              "type": "tuple"
            },
            {
              "components": [
                {
                  "internalType": "address payable",
                  "name": "initiatorAddress",
                  "type": "address"
                },
                {
                  "internalType": "string",
                  "name": "content",
                  "type": "string"
                },
                {
                  "internalType": "uint256",
                  "name": "reward",
                  "type": "uint256"
                },
                {
                  "internalType": "uint256",
                  "name": "initiatorDeposit",
                  "type": "uint256"
                },
                {
                  "internalType": "uint256",
                  "name": "informationIdCounter",
                  "type": "uint256"
                }
              ],
              "internalType": "struct InformationMarket.Basic",
              "name": "basic",
              "type": "tuple"
            },
            {
              "components": [
                {
                  "internalType": "address payable",
                  "name": "winnerByInitiator",
                  "type": "address"
                }
              ],
              "internalType": "struct InformationMarket.Initiator",
              "name": "initiator",
              "type": "tuple"
            },
            {
              "components": [
                {
                  "internalType": "address payable",
                  "name": "disputingProvider",
                  "type": "address"
                },
                {
                  "internalType": "uint256",
                  "name": "providerDeposit",
                  "type": "uint256"
                }
              ],
              "internalType": "struct InformationMarket.Dispute",
              "name": "dispute",
              "type": "tuple"
            },
            {
              "components": [
                {
                  "internalType": "address payable",
                  "name": "assignedArbitor",
                  "type": "address"
                },
                {
                  "internalType": "address payable",
                  "name": "winnerByArbitration",
                  "type": "address"
                }
              ],
              "internalType": "struct InformationMarket.Arbitration",
              "name": "arbitration",
              "type": "tuple"
            },
            {
              "internalType": "bool",
              "name": "requestClosed",
              "type": "bool"
            }
          ],
          "internalType": "struct InformationMarket.Request",
          "name": "",
          "type": "tuple"
        },
        {
          "components": [
            {
              "internalType": "address payable",
              "name": "provider",
              "type": "address"
            },
            {
              "internalType": "string",
              "name": "content",
              "type": "string"
            }
          ],
          "internalType": "struct InformationMarket.Information[]",
          "name": "",
          "type": "tuple[]"
        },
        {
          "components": [
            {
              "components": [
                {
                  "internalType": "address",
                  "name": "arbitorAddress",
                  "type": "address"
                },
                {
                  "internalType": "uint256",
                  "name": "arbitorId",
                  "type": "uint256"
                },
                {
                  "internalType": "uint256",
                  "name": "provisionaryReward",
                  "type": "uint256"
                }
              ],
              "internalType": "struct InformationMarket.ArbitorArbitration",
              "name": "arbitration",
              "type": "tuple"
            },
            {
              "components": [
                {
                  "internalType": "uint256",
                  "name": "casesHandled",
                  "type": "uint256"
                },
                {
                  "internalType": "uint256",
                  "name": "timestampLastCase",
                  "type": "uint256"
                },
                {
                  "internalType": "uint256",
                  "name": "stakedBalance",
                  "type": "uint256"
                },
                {
                  "internalType": "uint256",
                  "name": "assignedCaseId",
                  "type": "uint256"
                }
              ],
              "internalType": "struct InformationMarket.ArbitorSlashing",
              "name": "slashing",
              "type": "tuple"
            }
          ],
          "internalType": "struct InformationMarket.Arbitor",
          "name": "",
          "type": "tuple"
        }
      ],
      "stateMutability": "view",
      "type": "function"
    },
    {
      "inputs": [
        {
          "internalType": "uint256",
          "name": "_requestId",
          "type": "uint256"
        }
      ],
      "name": "payout",
      "outputs": [],
      "stateMutability": "nonpayable",
      "type": "function"
    },
    {
      "inputs": [
        {
          "internalType": "uint256",
          "name": "_requestId",
          "type": "uint256"
        },
        {
          "internalType": "address payable",
          "name": "_winnerAddress",
          "type": "address"
        }
      ],
      "name": "pickWinner",
      "outputs": [],
      "stateMutability": "nonpayable",
      "type": "function"
    },
    {
      "inputs": [],
      "name": "register",
      "outputs": [],
      "stateMutability": "payable",
      "type": "function"
    },
    {
      "inputs": [
        {
          "internalType": "string",
          "name": "_requestContent",
          "type": "string"
        },
        {
          "internalType": "uint256",
          "name": "_deadline",
          "type": "uint256"
        }
      ],
      "name": "request",
      "outputs": [],
      "stateMutability": "payable",
      "type": "function"
    },
    {
      "inputs": [],
      "name": "requestIdCounter",
      "outputs": [
        {
          "internalType": "uint256",
          "name": "",
          "type": "uint256"
        }
      ],
      "stateMutability": "view",
      "type": "function"
    },
    {
      "inputs": [
        {
          "internalType": "uint256",
          "name": "",
          "type": "uint256"
        }
      ],
      "name": "requests",
      "outputs": [
        {
          "components": [
            {
              "internalType": "uint256",
              "name": "basic",
              "type": "uint256"
            },
            {
              "internalType": "uint256",
              "name": "initiator",
              "type": "uint256"
            },
            {
              "internalType": "uint256",
              "name": "dispute",
              "type": "uint256"
            },
            {
              "internalType": "uint256",
              "name": "arbitration",
              "type": "uint256"
            },
            {
              "internalType": "uint256",
              "name": "payout",
              "type": "uint256"
            }
          ],
          "internalType": "struct InformationMarket.Deadlines",
          "name": "deadlines",
          "type": "tuple"
        },
        {
          "components": [
            {
              "internalType": "address payable",
              "name": "initiatorAddress",
              "type": "address"
            },
            {
              "internalType": "string",
              "name": "content",
              "type": "string"
            },
            {
              "internalType": "uint256",
              "name": "reward",
              "type": "uint256"
            },
            {
              "internalType": "uint256",
              "name": "initiatorDeposit",
              "type": "uint256"
            },
            {
              "internalType": "uint256",
              "name": "informationIdCounter",
              "type": "uint256"
            }
          ],
          "internalType": "struct InformationMarket.Basic",
          "name": "basic",
          "type": "tuple"
        },
        {
          "components": [
            {
              "internalType": "address payable",
              "name": "winnerByInitiator",
              "type": "address"
            }
          ],
          "internalType": "struct InformationMarket.Initiator",
          "name": "initiator",
          "type": "tuple"
        },
        {
          "components": [
            {
              "internalType": "address payable",
              "name": "disputingProvider",
              "type": "address"
            },
            {
              "internalType": "uint256",
              "name": "providerDeposit",
              "type": "uint256"
            }
          ],
          "internalType": "struct InformationMarket.Dispute",
          "name": "dispute",
          "type": "tuple"
        },
        {
          "components": [
            {
              "internalType": "address payable",
              "name": "assignedArbitor",
              "type": "address"
            },
            {
              "internalType": "address payable",
              "name": "winnerByArbitration",
              "type": "address"
            }
          ],
          "internalType": "struct InformationMarket.Arbitration",
          "name": "arbitration",
          "type": "tuple"
        },
        {
          "internalType": "bool",
          "name": "requestClosed",
          "type": "bool"
        }
      ],
      "stateMutability": "view",
      "type": "function"
    },
    {
      "inputs": [
        {
          "internalType": "uint256",
          "name": "_newRandomNumber",
          "type": "uint256"
        }
      ],
      "name": "setRandomNumber",
      "outputs": [],
      "stateMutability": "nonpayable",
      "type": "function"
    },
    {
      "inputs": [
        {
          "internalType": "string",
          "name": "_informationContent",
          "type": "string"
        },
        {
          "internalType": "uint256",
          "name": "_requestId",
          "type": "uint256"
        }
      ],
      "name": "submitInformation",
      "outputs": [],
      "stateMutability": "nonpayable",
      "type": "function"
    },
    {
      "inputs": [],
      "name": "test",
      "outputs": [
        {
          "internalType": "uint256",
          "name": "",
          "type": "uint256"
        }
      ],
      "stateMutability": "pure",
      "type": "function"
    },
    {
      "inputs": [],
      "name": "withdraw",
      "outputs": [],
      "stateMutability": "nonpayable",
      "type": "function"
    }
  ],
  "bytecode": "0x60806040523480156200001157600080fd5b5060405162003dc038038062003dc08339818101604052810190620000379190620000b4565b336000806101000a81548173ffffffffffffffffffffffffffffffffffffffff021916908373ffffffffffffffffffffffffffffffffffffffff160217905550836001819055508260098190555081600281905550806003819055505050505062000144565b600081519050620000ae816200012a565b92915050565b60008060008060808587031215620000cb57600080fd5b6000620000db878288016200009d565b9450506020620000ee878288016200009d565b935050604062000101878288016200009d565b925050606062000114878288016200009d565b91505092959194509250565b6000819050919050565b620001358162000120565b81146200014157600080fd5b50565b613c6c80620001546000396000f3fe6080604052600436106100dd5760003560e01c8063c58343ef1161007f578063dc6ad19e11610059578063dc6ad19e14610288578063e1152343146102a4578063f1275663146102cd578063f8a8fd6d146102f6576100dd565b8063c58343ef146101f7578063c93767f514610236578063d6bfea281461025f576100dd565b806386d6282c116100bb57806386d6282c146101455780638db5888a14610161578063923123861461018c578063a6845dbf146101ce576100dd565b80631aa3a008146100e25780633ccfd60b146100ec57806381d12c5814610103575b600080fd5b6100ea610321565b005b3480156100f857600080fd5b5061010161054c565b005b34801561010f57600080fd5b5061012a60048036038101906101259190612a5c565b610587565b60405161013c969594939291906133bf565b60405180910390f35b61015f600480360381019061015a9190612a5c565b61089c565b005b34801561016d57600080fd5b50610176610d03565b6040516101839190613470565b60405180910390f35b34801561019857600080fd5b506101b360048036038101906101ae9190612a5c565b610d09565b6040516101c59695949392919061348b565b60405180910390f35b3480156101da57600080fd5b506101f560048036038101906101f09190612a08565b610dce565b005b34801561020357600080fd5b5061021e60048036038101906102199190612a5c565b610ff4565b60405161022d9392919061342a565b60405180910390f35b34801561024257600080fd5b5061025d60048036038101906102589190612ac1565b6116a6565b005b34801561026b57600080fd5b5061028660048036038101906102819190612a5c565b611964565b005b6102a2600480360381019061029d9190612a08565b611a2a565b005b3480156102b057600080fd5b506102cb60048036038101906102c69190612a5c565b611c5e565b005b3480156102d957600080fd5b506102f460048036038101906102ef9190612a85565b6123f6565b005b34801561030257600080fd5b5061030b61265b565b6040516103189190613470565b60405180910390f35b600954341015610366576040517f08c379a000000000000000000000000000000000000000000000000000000000815260040161035d9061333f565b60405180910390fd5b600073ffffffffffffffffffffffffffffffffffffffff16600b60003373ffffffffffffffffffffffffffffffffffffffff1673ffffffffffffffffffffffffffffffffffffffff16815260200190815260200160002060000160000160009054906101000a900473ffffffffffffffffffffffffffffffffffffffff1673ffffffffffffffffffffffffffffffffffffffff161461043a576040517f08c379a00000000000000000000000000000000000000000000000000000000081526004016104319061325f565b60405180910390fd5b6000600b60003373ffffffffffffffffffffffffffffffffffffffff1673ffffffffffffffffffffffffffffffffffffffff1681526020019081526020016000209050338160000160000160006101000a81548173ffffffffffffffffffffffffffffffffffffffff021916908373ffffffffffffffffffffffffffffffffffffffff160217905550600a54816000016001018190555034816003016002018190555033600c6000600a54815260200190815260200160002060006101000a81548173ffffffffffffffffffffffffffffffffffffffff021916908373ffffffffffffffffffffffffffffffffffffffff160217905550600a6000815480929190610544906137bc565b919050555050565b600073ffffffffffffffffffffffffffffffffffffffff163373ffffffffffffffffffffffffffffffffffffffff161461058557600080fd5b565b6005602052806000526040600020600091509050806000016040518060a00160405290816000820154815260200160018201548152602001600282015481526020016003820154815260200160048201548152505090806005016040518060a00160405290816000820160009054906101000a900473ffffffffffffffffffffffffffffffffffffffff1673ffffffffffffffffffffffffffffffffffffffff1673ffffffffffffffffffffffffffffffffffffffff16815260200160018201805461065290613759565b80601f016020809104026020016040519081016040528092919081815260200182805461067e90613759565b80156106cb5780601f106106a0576101008083540402835291602001916106cb565b820191906000526020600020905b8154815290600101906020018083116106ae57829003601f168201915b5050505050815260200160028201548152602001600382015481526020016004820154815250509080600a016040518060200160405290816000820160009054906101000a900473ffffffffffffffffffffffffffffffffffffffff1673ffffffffffffffffffffffffffffffffffffffff1673ffffffffffffffffffffffffffffffffffffffff16815250509080600b016040518060400160405290816000820160009054906101000a900473ffffffffffffffffffffffffffffffffffffffff1673ffffffffffffffffffffffffffffffffffffffff1673ffffffffffffffffffffffffffffffffffffffff1681526020016001820154815250509080600d016040518060400160405290816000820160009054906101000a900473ffffffffffffffffffffffffffffffffffffffff1673ffffffffffffffffffffffffffffffffffffffff1673ffffffffffffffffffffffffffffffffffffffff1681526020016001820160009054906101000a900473ffffffffffffffffffffffffffffffffffffffff1673ffffffffffffffffffffffffffffffffffffffff1673ffffffffffffffffffffffffffffffffffffffff16815250509080600f0160009054906101000a900460ff16905086565b806005600082815260200190815260200160002060000160010154421180156108de575060056000828152602001908152602001600020600001600201544211155b61091d576040517f08c379a00000000000000000000000000000000000000000000000000000000081526004016109149061339f565b60405180910390fd5b6000600560008381526020019081526020016000206005016004015411610979576040517f08c379a00000000000000000000000000000000000000000000000000000000081526004016109709061323f565b60405180910390fd5b8160011515600860003373ffffffffffffffffffffffffffffffffffffffff1673ffffffffffffffffffffffffffffffffffffffff168152602001908152602001600020600083815260200190815260200160002060009054906101000a900460ff161515146109e857600080fd5b600073ffffffffffffffffffffffffffffffffffffffff1660056000858152602001908152602001600020600b0160000160009054906101000a900473ffffffffffffffffffffffffffffffffffffffff1673ffffffffffffffffffffffffffffffffffffffff1614610a90576040517f08c379a0000000000000000000000000000000000000000000000000000000008152600401610a87906132bf565b60405180910390fd5b600073ffffffffffffffffffffffffffffffffffffffff1660056000858152602001908152602001600020600a0160000160009054906101000a900473ffffffffffffffffffffffffffffffffffffffff1673ffffffffffffffffffffffffffffffffffffffff1614610b7c576005600084815260200190815260200160002060050160030154341015610b59576040517f08c379a0000000000000000000000000000000000000000000000000000000008152600401610b509061329f565b60405180910390fd5b3460056000858152602001908152602001600020600b0160010181905550610bc0565b60003414610bbf576040517f08c379a0000000000000000000000000000000000000000000000000000000008152600401610bb69061321f565b60405180910390fd5b5b3360056000858152602001908152602001600020600b0160000160006101000a81548173ffffffffffffffffffffffffffffffffffffffff021916908373ffffffffffffffffffffffffffffffffffffffff1602179055506000610c22612664565b905083600b60008373ffffffffffffffffffffffffffffffffffffffff1673ffffffffffffffffffffffffffffffffffffffff168152602001908152602001600020600301600301819055508060056000868152602001908152602001600020600d0160000160006101000a81548173ffffffffffffffffffffffffffffffffffffffff021916908373ffffffffffffffffffffffffffffffffffffffff1602179055507f6cb74efd1c8287efd4dd1e87e050b2af8c2b0fd7791b181e9f940fb62108cdd984604051610cf59190613470565b60405180910390a150505050565b60045481565b60008060008060008060004290506000600560008a81526020019081526020016000206000016000015490506000600560008b81526020019081526020016000206000016001015490506000600560008c81526020019081526020016000206000016002015490506000600560008d81526020019081526020016000206000016003015490506000600560008e81526020019081526020016000206000016004015490508585858585859b509b509b509b509b509b5050505050505091939550919395565b806005600082815260200190815260200160002060000160000154421115610e2b576040517f08c379a0000000000000000000000000000000000000000000000000000000008152600401610e229061339f565b60405180910390fd5b610e336126a0565b83816020018190525033816000019073ffffffffffffffffffffffffffffffffffffffff16908173ffffffffffffffffffffffffffffffffffffffff16815250506000600560008581526020019081526020016000206005016004015490508160076000868152602001908152602001600020600083815260200190815260200160002060008201518160000160006101000a81548173ffffffffffffffffffffffffffffffffffffffff021916908373ffffffffffffffffffffffffffffffffffffffff1602179055506020820151816001019080519060200190610f1a9291906126d0565b509050506001600860003373ffffffffffffffffffffffffffffffffffffffff1673ffffffffffffffffffffffffffffffffffffffff168152602001908152602001600020600086815260200190815260200160002060006101000a81548160ff021916908315150217905550600560008581526020019081526020016000206005016004016000815480929190610fb1906137bc565b91905055507f6cb74efd1c8287efd4dd1e87e050b2af8c2b0fd7791b181e9f940fb62108cdd984604051610fe59190613470565b60405180910390a15050505050565b610ffc612756565b60606110066127ac565b60006005600086815260200190815260200160002060050160040154905060008167ffffffffffffffff811115611066577f4e487b7100000000000000000000000000000000000000000000000000000000600052604160045260246000fd5b60405190808252806020026020018201604052801561109f57816020015b61108c6126a0565b8152602001906001900390816110845790505b50905060005b8281101561121b576007600088815260200190815260200160002060008281526020019081526020016000206040518060400160405290816000820160009054906101000a900473ffffffffffffffffffffffffffffffffffffffff1673ffffffffffffffffffffffffffffffffffffffff1673ffffffffffffffffffffffffffffffffffffffff16815260200160018201805461114290613759565b80601f016020809104026020016040519081016040528092919081815260200182805461116e90613759565b80156111bb5780601f10611190576101008083540402835291602001916111bb565b820191906000526020600020905b81548152906001019060200180831161119e57829003601f168201915b5050505050815250508282815181106111fd577f4e487b7100000000000000000000000000000000000000000000000000000000600052603260045260246000fd5b60200260200101819052508080611213906137bc565b9150506110a5565b506005600087815260200190815260200160002081600b6000600560008b8152602001908152602001600020600d0160000160009054906101000a900473ffffffffffffffffffffffffffffffffffffffff1673ffffffffffffffffffffffffffffffffffffffff1673ffffffffffffffffffffffffffffffffffffffff168152602001908152602001600020826040518060c0016040529081600082016040518060a0016040529081600082015481526020016001820154815260200160028201548152602001600382015481526020016004820154815250508152602001600582016040518060a00160405290816000820160009054906101000a900473ffffffffffffffffffffffffffffffffffffffff1673ffffffffffffffffffffffffffffffffffffffff1673ffffffffffffffffffffffffffffffffffffffff16815260200160018201805461137090613759565b80601f016020809104026020016040519081016040528092919081815260200182805461139c90613759565b80156113e95780601f106113be576101008083540402835291602001916113e9565b820191906000526020600020905b8154815290600101906020018083116113cc57829003601f168201915b5050505050815260200160028201548152602001600382015481526020016004820154815250508152602001600a82016040518060200160405290816000820160009054906101000a900473ffffffffffffffffffffffffffffffffffffffff1673ffffffffffffffffffffffffffffffffffffffff1673ffffffffffffffffffffffffffffffffffffffff16815250508152602001600b82016040518060400160405290816000820160009054906101000a900473ffffffffffffffffffffffffffffffffffffffff1673ffffffffffffffffffffffffffffffffffffffff1673ffffffffffffffffffffffffffffffffffffffff1681526020016001820154815250508152602001600d82016040518060400160405290816000820160009054906101000a900473ffffffffffffffffffffffffffffffffffffffff1673ffffffffffffffffffffffffffffffffffffffff1673ffffffffffffffffffffffffffffffffffffffff1681526020016001820160009054906101000a900473ffffffffffffffffffffffffffffffffffffffff1673ffffffffffffffffffffffffffffffffffffffff1673ffffffffffffffffffffffffffffffffffffffff16815250508152602001600f820160009054906101000a900460ff161515151581525050925080604051806040016040529081600082016040518060600160405290816000820160009054906101000a900473ffffffffffffffffffffffffffffffffffffffff1673ffffffffffffffffffffffffffffffffffffffff1673ffffffffffffffffffffffffffffffffffffffff1681526020016001820154815260200160028201548152505081526020016003820160405180608001604052908160008201548152602001600182015481526020016002820154815260200160038201548152505081525050905094509450945050509193909250565b816005600082815260200190815260200160002060000160000154421180156116e8575060056000828152602001908152602001600020600001600101544211155b611727576040517f08c379a000000000000000000000000000000000000000000000000000000000815260040161171e9061339f565b60405180910390fd5b6000600560008381526020019081526020016000206005016004015411611783576040517f08c379a000000000000000000000000000000000000000000000000000000000815260040161177a9061323f565b60405180910390fd5b826005600082815260200190815260200160002060050160000160009054906101000a900473ffffffffffffffffffffffffffffffffffffffff1673ffffffffffffffffffffffffffffffffffffffff163373ffffffffffffffffffffffffffffffffffffffff161461182b576040517f08c379a00000000000000000000000000000000000000000000000000000000081526004016118229061327f565b60405180910390fd5b60011515600860008573ffffffffffffffffffffffffffffffffffffffff1673ffffffffffffffffffffffffffffffffffffffff168152602001908152602001600020600086815260200190815260200160002060009054906101000a900460ff161515146118cf576040517f08c379a00000000000000000000000000000000000000000000000000000000081526004016118c6906132ff565b60405180910390fd5b8260056000868152602001908152602001600020600a0160000160006101000a81548173ffffffffffffffffffffffffffffffffffffffff021916908373ffffffffffffffffffffffffffffffffffffffff1602179055507f6cb74efd1c8287efd4dd1e87e050b2af8c2b0fd7791b181e9f940fb62108cdd9846040516119569190613470565b60405180910390a150505050565b8060008054906101000a900473ffffffffffffffffffffffffffffffffffffffff1673ffffffffffffffffffffffffffffffffffffffff163373ffffffffffffffffffffffffffffffffffffffff16146119f3576040517f08c379a00000000000000000000000000000000000000000000000000000000081526004016119ea9061331f565b60405180910390fd5b816002819055507f79262c381501a7e1ad2593277691d964e31d329c654d73fbc2a1b107f494613860405160405180910390a15050565b6000600560006004548152602001908152602001600020905082816005016001019080519060200190611a5e9291906126d0565b5060018054611a6d9190613689565b60015434611a7b91906135fe565b611a85919061362f565b816005016002018190555060015434611a9e91906135fe565b8160050160030181905550338160050160000160006101000a81548173ffffffffffffffffffffffffffffffffffffffff021916908373ffffffffffffffffffffffffffffffffffffffff1602179055508142611afb91906135a8565b8160000160000181905550603c600354611b15919061362f565b8160000160000154611b2791906135a8565b81600001600101819055506078600354611b41919061362f565b8160000160000154611b5391906135a8565b816000016002018190555060b4600354611b6d919061362f565b8160000160000154611b7f91906135a8565b816000016003018190555060f0600354611b99919061362f565b8160000160000154611bab91906135a8565b8160000160040181905550600454600660003373ffffffffffffffffffffffffffffffffffffffff1673ffffffffffffffffffffffffffffffffffffffff1681526020019081526020016000208190555060046000815480929190611c0f906137bc565b91905055507f6cb74efd1c8287efd4dd1e87e050b2af8c2b0fd7791b181e9f940fb62108cdd96001600454611c449190613689565b604051611c519190613470565b60405180910390a1505050565b8060056000828152602001908152602001600020600001600301544211611cba576040517f08c379a0000000000000000000000000000000000000000000000000000000008152600401611cb19061339f565b60405180910390fd5b6000151560056000848152602001908152602001600020600f0160009054906101000a900460ff16151514611d24576040517f08c379a0000000000000000000000000000000000000000000000000000000008152600401611d1b906132df565b60405180910390fd5b60006005600084815260200190815260200160002060050160040154905060006005600085815260200190815260200160002060050160000160009054906101000a900473ffffffffffffffffffffffffffffffffffffffff169050600060076000868152602001908152602001600020600080815260200190815260200160002060000160009054906101000a900473ffffffffffffffffffffffffffffffffffffffff169050600060056000878152602001908152602001600020600a0160000160009054906101000a900473ffffffffffffffffffffffffffffffffffffffff169050600060056000888152602001908152602001600020600b0160000160009054906101000a900473ffffffffffffffffffffffffffffffffffffffff169050600060056000898152602001908152602001600020600d0160010160009054906101000a900473ffffffffffffffffffffffffffffffffffffffff1690506000600560008a8152602001908152602001600020600d0160000160009054906101000a900473ffffffffffffffffffffffffffffffffffffffff1690506000600560008b81526020019081526020016000206005016003015490506000600560008c8152602001908152602001600020600b016001015490506000600560008d815260200190815260200160002060050160020154905060008a1415611f73578873ffffffffffffffffffffffffffffffffffffffff166108fc849081150290604051600060405180830381858888f19350505050158015611f6d573d6000803e3d6000fd5b50612382565b60018a141561200f578873ffffffffffffffffffffffffffffffffffffffff166108fc849081150290604051600060405180830381858888f19350505050158015611fc2573d6000803e3d6000fd5b508773ffffffffffffffffffffffffffffffffffffffff166108fc829081150290604051600060405180830381858888f19350505050158015612009573d6000803e3d6000fd5b50612381565b600073ffffffffffffffffffffffffffffffffffffffff168673ffffffffffffffffffffffffffffffffffffffff16146122f1578673ffffffffffffffffffffffffffffffffffffffff168573ffffffffffffffffffffffffffffffffffffffff1614156121c3576000600560008e8152602001908152602001600020600b01600101819055508873ffffffffffffffffffffffffffffffffffffffff166108fc849081150290604051600060405180830381858888f193505050501580156120dc573d6000803e3d6000fd5b506000600560008e8152602001908152602001600020600501600201819055508673ffffffffffffffffffffffffffffffffffffffff166108fc829081150290604051600060405180830381858888f19350505050158015612142573d6000803e3d6000fd5b506000600560008e8152602001908152602001600020600b016001018190555081600b60008673ffffffffffffffffffffffffffffffffffffffff1673ffffffffffffffffffffffffffffffffffffffff16815260200190815260200160002060000160020160008282546121b791906135a8565b925050819055506122ec565b82600b60008673ffffffffffffffffffffffffffffffffffffffff1673ffffffffffffffffffffffffffffffffffffffff168152602001908152602001600020600001600201600082825461221891906135a8565b925050819055506000600560008e8152602001908152602001600020600501600301819055508573ffffffffffffffffffffffffffffffffffffffff166108fc839081150290604051600060405180830381858888f19350505050158015612284573d6000803e3d6000fd5b506000600560008e8152602001908152602001600020600501600201819055508473ffffffffffffffffffffffffffffffffffffffff166108fc829081150290604051600060405180830381858888f193505050501580156122ea573d6000803e3d6000fd5b505b612380565b8873ffffffffffffffffffffffffffffffffffffffff166108fc849081150290604051600060405180830381858888f19350505050158015612337573d6000803e3d6000fd5b508673ffffffffffffffffffffffffffffffffffffffff166108fc829081150290604051600060405180830381858888f1935050505015801561237e573d6000803e3d6000fd5b505b5b5b6001600560008e8152602001908152602001600020600f0160006101000a81548160ff0219169083151502179055507f6cb74efd1c8287efd4dd1e87e050b2af8c2b0fd7791b181e9f940fb62108cdd98c6040516123e09190613470565b60405180910390a1505050505050505050505050565b81600073ffffffffffffffffffffffffffffffffffffffff1660056000838152602001908152602001600020600b0160000160009054906101000a900473ffffffffffffffffffffffffffffffffffffffff1673ffffffffffffffffffffffffffffffffffffffff1614156124a0576040517f08c379a00000000000000000000000000000000000000000000000000000000081526004016124979061335f565b60405180910390fd5b6005600082815260200190815260200160002060000160020154421180156124e1575060056000828152602001908152602001600020600001600301544211155b612520576040517f08c379a00000000000000000000000000000000000000000000000000000000081526004016125179061339f565b60405180910390fd5b3373ffffffffffffffffffffffffffffffffffffffff1660056000858152602001908152602001600020600d0160000160009054906101000a900473ffffffffffffffffffffffffffffffffffffffff1673ffffffffffffffffffffffffffffffffffffffff16146125c7576040517f08c379a00000000000000000000000000000000000000000000000000000000081526004016125be9061337f565b60405180910390fd5b8160056000858152602001908152602001600020600d0160010160006101000a81548173ffffffffffffffffffffffffffffffffffffffff021916908373ffffffffffffffffffffffffffffffffffffffff1602179055507f6cb74efd1c8287efd4dd1e87e050b2af8c2b0fd7791b181e9f940fb62108cdd98360405161264e9190613470565b60405180910390a1505050565b6000600a905090565b6000600a8054106126745761269c565b60008054906101000a900473ffffffffffffffffffffffffffffffffffffffff16905061269d565b5b90565b6040518060400160405280600073ffffffffffffffffffffffffffffffffffffffff168152602001606081525090565b8280546126dc90613759565b90600052602060002090601f0160209004810192826126fe5760008555612745565b82601f1061271757805160ff1916838001178555612745565b82800160010185558215612745579182015b82811115612744578251825591602001919060010190612729565b5b50905061275291906127d2565b5090565b6040518060c001604052806127696127ef565b815260200161277661281e565b8152602001612783612863565b815260200161279061288c565b815260200161279d6128bc565b81526020016000151581525090565b60405180604001604052806127bf612902565b81526020016127cc612939565b81525090565b5b808211156127eb5760008160009055506001016127d3565b5090565b6040518060a0016040528060008152602001600081526020016000815260200160008152602001600081525090565b6040518060a00160405280600073ffffffffffffffffffffffffffffffffffffffff168152602001606081526020016000815260200160008152602001600081525090565b6040518060200160405280600073ffffffffffffffffffffffffffffffffffffffff1681525090565b6040518060400160405280600073ffffffffffffffffffffffffffffffffffffffff168152602001600081525090565b6040518060400160405280600073ffffffffffffffffffffffffffffffffffffffff168152602001600073ffffffffffffffffffffffffffffffffffffffff1681525090565b6040518060600160405280600073ffffffffffffffffffffffffffffffffffffffff16815260200160008152602001600081525090565b6040518060800160405280600081526020016000815260200160008152602001600081525090565b600061297461296f84613511565b6134ec565b90508281526020810184848401111561298c57600080fd5b612997848285613717565b509392505050565b6000813590506129ae81613bf1565b92915050565b6000813590506129c381613c08565b92915050565b600082601f8301126129da57600080fd5b81356129ea848260208601612961565b91505092915050565b600081359050612a0281613c1f565b92915050565b60008060408385031215612a1b57600080fd5b600083013567ffffffffffffffff811115612a3557600080fd5b612a41858286016129c9565b9250506020612a52858286016129f3565b9150509250929050565b600060208284031215612a6e57600080fd5b6000612a7c848285016129f3565b91505092915050565b60008060408385031215612a9857600080fd5b6000612aa6858286016129f3565b9250506020612ab78582860161299f565b9150509250929050565b60008060408385031215612ad457600080fd5b6000612ae2858286016129f3565b9250506020612af3858286016129b4565b9150509250929050565b6000612b098383613100565b905092915050565b612b1a816136cf565b82525050565b612b29816136bd565b82525050565b6000612b3a82613552565b612b448185613575565b935083602082028501612b5685613542565b8060005b85811015612b925784840389528151612b738582612afd565b9450612b7e83613568565b925060208a01995050600181019050612b5a565b50829750879550505050505092915050565b612bad816136e1565b82525050565b612bbc816136e1565b82525050565b6000612bcd8261355d565b612bd78185613586565b9350612be7818560208601613726565b612bf0816138c1565b840191505092915050565b6000612c08601883613597565b9150612c13826138d2565b602082019050919050565b6000612c2b602083613597565b9150612c36826138fb565b602082019050919050565b6000612c4e602783613597565b9150612c5982613924565b604082019050919050565b6000612c71602983613597565b9150612c7c82613973565b604082019050919050565b6000612c94601483613597565b9150612c9f826139c2565b602082019050919050565b6000612cb7602783613597565b9150612cc2826139eb565b604082019050919050565b6000612cda600e83613597565b9150612ce582613a3a565b602082019050919050565b6000612cfd602483613597565b9150612d0882613a63565b604082019050919050565b6000612d20602b83613597565b9150612d2b82613ab2565b604082019050919050565b6000612d43603883613597565b9150612d4e82613b01565b604082019050919050565b6000612d66601383613597565b9150612d7182613b50565b602082019050919050565b6000612d89602683613597565b9150612d9482613b79565b604082019050919050565b6000612dac601783613597565b9150612db782613bc8565b602082019050919050565b606082016000820151612dd86000850182612b20565b506020820151612deb6020850182613201565b506040820151612dfe6040850182613201565b50505050565b608082016000820151612e1a6000850182613201565b506020820151612e2d6020850182613201565b506040820151612e406040850182613201565b506060820151612e536060850182613201565b50505050565b60e082016000820151612e6f6000850182612dc2565b506020820151612e826060850182612e04565b50505050565b604082016000820151612e9e6000850182612b11565b506020820151612eb16020850182612b11565b50505050565b604082016000820151612ecd6000850182612b11565b506020820151612ee06020850182612b11565b50505050565b600060a083016000830151612efe6000860182612b11565b5060208301518482036020860152612f168282612bc2565b9150506040830151612f2b6040860182613201565b506060830151612f3e6060860182613201565b506080830151612f516080860182613201565b508091505092915050565b600060a083016000830151612f746000860182612b11565b5060208301518482036020860152612f8c8282612bc2565b9150506040830151612fa16040860182613201565b506060830151612fb46060860182613201565b506080830151612fc76080860182613201565b508091505092915050565b60a082016000820151612fe86000850182613201565b506020820151612ffb6020850182613201565b50604082015161300e6040850182613201565b5060608201516130216060850182613201565b5060808201516130346080850182613201565b50505050565b60a0820160008201516130506000850182613201565b5060208201516130636020850182613201565b5060408201516130766040850182613201565b5060608201516130896060850182613201565b50608082015161309c6080850182613201565b50505050565b6040820160008201516130b86000850182612b11565b5060208201516130cb6020850182613201565b50505050565b6040820160008201516130e76000850182612b11565b5060208201516130fa6020850182613201565b50505050565b60006040830160008301516131186000860182612b11565b50602083015184820360208601526131308282612bc2565b9150508091505092915050565b6020820160008201516131536000850182612b11565b50505050565b60208201600082015161316f6000850182612b11565b50505050565b60006101808301600083015161318e6000860182612fd2565b50602083015184820360a08601526131a68282612ee6565b91505060408301516131bb60c086018261313d565b5060608301516131ce60e08601826130a2565b5060808301516131e2610120860182612e88565b5060a08301516131f6610160860182612ba4565b508091505092915050565b61320a8161370d565b82525050565b6132198161370d565b82525050565b6000602082019050818103600083015261323881612bfb565b9050919050565b6000602082019050818103600083015261325881612c1e565b9050919050565b6000602082019050818103600083015261327881612c41565b9050919050565b6000602082019050818103600083015261329881612c64565b9050919050565b600060208201905081810360008301526132b881612c87565b9050919050565b600060208201905081810360008301526132d881612caa565b9050919050565b600060208201905081810360008301526132f881612ccd565b9050919050565b6000602082019050818103600083015261331881612cf0565b9050919050565b6000602082019050818103600083015261333881612d13565b9050919050565b6000602082019050818103600083015261335881612d36565b9050919050565b6000602082019050818103600083015261337881612d59565b9050919050565b6000602082019050818103600083015261339881612d7c565b9050919050565b600060208201905081810360008301526133b881612d9f565b9050919050565b6000610180820190506133d5600083018961303a565b81810360a08301526133e78188612f5c565b90506133f660c0830187613159565b61340360e08301866130d1565b613411610120830185612eb7565b61341f610160830184612bb3565b979650505050505050565b60006101208201905081810360008301526134458186613175565b905081810360208301526134598185612b2f565b90506134686040830184612e59565b949350505050565b60006020820190506134856000830184613210565b92915050565b600060c0820190506134a06000830189613210565b6134ad6020830188613210565b6134ba6040830187613210565b6134c76060830186613210565b6134d46080830185613210565b6134e160a0830184613210565b979650505050505050565b60006134f6613507565b9050613502828261378b565b919050565b6000604051905090565b600067ffffffffffffffff82111561352c5761352b613892565b5b613535826138c1565b9050602081019050919050565b6000819050602082019050919050565b600081519050919050565b600081519050919050565b6000602082019050919050565b600082825260208201905092915050565b600082825260208201905092915050565b600082825260208201905092915050565b60006135b38261370d565b91506135be8361370d565b9250827fffffffffffffffffffffffffffffffffffffffffffffffffffffffffffffffff038211156135f3576135f2613805565b5b828201905092915050565b60006136098261370d565b91506136148361370d565b92508261362457613623613834565b5b828204905092915050565b600061363a8261370d565b91506136458361370d565b9250817fffffffffffffffffffffffffffffffffffffffffffffffffffffffffffffffff048311821515161561367e5761367d613805565b5b828202905092915050565b60006136948261370d565b915061369f8361370d565b9250828210156136b2576136b1613805565b5b828203905092915050565b60006136c8826136ed565b9050919050565b60006136da826136ed565b9050919050565b60008115159050919050565b600073ffffffffffffffffffffffffffffffffffffffff82169050919050565b6000819050919050565b82818337600083830152505050565b60005b83811015613744578082015181840152602081019050613729565b83811115613753576000848401525b50505050565b6000600282049050600182168061377157607f821691505b6020821081141561378557613784613863565b5b50919050565b613794826138c1565b810181811067ffffffffffffffff821117156137b3576137b2613892565b5b80604052505050565b60006137c78261370d565b91507fffffffffffffffffffffffffffffffffffffffffffffffffffffffffffffffff8214156137fa576137f9613805565b5b600182019050919050565b7f4e487b7100000000000000000000000000000000000000000000000000000000600052601160045260246000fd5b7f4e487b7100000000000000000000000000000000000000000000000000000000600052601260045260246000fd5b7f4e487b7100000000000000000000000000000000000000000000000000000000600052602260045260246000fd5b7f4e487b7100000000000000000000000000000000000000000000000000000000600052604160045260246000fd5b6000601f19601f8301169050919050565b7f66756e6374696f6e206973206672656520746f2063616c6c0000000000000000600082015250565b7f6e6f20696e666f726d6174696f6e20686173206265656e2070726f7669646564600082015250565b7f796f752061726520616c72656164792072656769737472656420617320616e2060008201527f61726269746f7200000000000000000000000000000000000000000000000000602082015250565b7f796f7520617265206e6f742074686520696e69746961746f72206f662074686960008201527f7320726571756573740000000000000000000000000000000000000000000000602082015250565b7f6465706f73697420697320746f6f20736d616c6c000000000000000000000000600082015250565b7f646973707574696e672070726f76696465722068617320616c7265616279206260008201527f65656e2073657400000000000000000000000000000000000000000000000000602082015250565b7f4361736520697320636c6f736564000000000000000000000000000000000000600082015250565b7f746861742070726f7669646572206164647265737320646f6573206e6f74206560008201527f7869737400000000000000000000000000000000000000000000000000000000602082015250565b7f6d73672e73656e646572206973206e6f7420746865206f776e6572206f66207460008201527f686520636f6e7472616374000000000000000000000000000000000000000000602082015250565b7f796f75206861766520746f20706179206d6f7265207468616e2074686174207460008201527f6f20726567697374657220617320616e2061726269746f720000000000000000602082015250565b7f7468657265206973206e6f206469737075746500000000000000000000000000600082015250565b7f6d73672e73656e646572206973206e6f74207468652061737369676e6564206160008201527f726269746f720000000000000000000000000000000000000000000000000000602082015250565b7f696e636f72726563742074696d6520696e74657276616c000000000000000000600082015250565b613bfa816136bd565b8114613c0557600080fd5b50565b613c11816136cf565b8114613c1c57600080fd5b50565b613c288161370d565b8114613c3357600080fd5b5056fea264697066735822122014e0fd5992bcbad6ef8eaf2d3ccd33ba0dd4f29b0b2e65c24b7d71b1ea68584064736f6c63430008040033",
  "linkReferences": {},
  "deployedLinkReferences": {}
}