{
  "_format": "hh-sol-artifact-1",
  "contractName": "InformationMarket",
  "sourceName": "contracts/InformationMarket.sol",
  "abi": [
    {
      "inputs": [
        {
          "internalType": "uint256",
          "name": "_depositMultiple",
          "type": "uint256"
        },
        {
          "internalType": "uint256",
          "name": "_requiredStake",
          "type": "uint256"
        },
        {
          "internalType": "uint256",
          "name": "_randomNumber",
          "type": "uint256"
        },
        {
          "internalType": "uint256",
          "name": "_delayInMinutes",
          "type": "uint256"
        }
      ],
      "stateMutability": "nonpayable",
      "type": "constructor"
    },
    {
      "anonymous": false,
      "inputs": [],
      "name": "ArbitorPicksWinner",
      "type": "event"
    },
    {
      "anonymous": false,
      "inputs": [],
      "name": "DisputeEvent",
      "type": "event"
    },
    {
      "anonymous": false,
      "inputs": [],
      "name": "DrawArbitorEvent",
      "type": "event"
    },
    {
      "anonymous": false,
      "inputs": [],
      "name": "PayoutEvent",
      "type": "event"
    },
    {
      "anonymous": false,
      "inputs": [],
      "name": "PickWinnerEvent",
      "type": "event"
    },
    {
      "anonymous": false,
      "inputs": [],
      "name": "RandomNumberEvent",
      "type": "event"
    },
    {
      "anonymous": false,
      "inputs": [],
      "name": "RegisterEvent",
      "type": "event"
    },
    {
      "anonymous": false,
      "inputs": [],
      "name": "RequestEvent",
      "type": "event"
    },
    {
      "anonymous": false,
      "inputs": [
        {
          "indexed": false,
          "internalType": "uint256",
          "name": "_requestId",
          "type": "uint256"
        }
      ],
      "name": "RequestHasChanged",
      "type": "event"
    },
    {
      "anonymous": false,
      "inputs": [],
      "name": "SlashingArbitorEvent",
      "type": "event"
    },
    {
      "anonymous": false,
      "inputs": [],
      "name": "SubmitInformationEvent",
      "type": "event"
    },
    {
      "anonymous": false,
      "inputs": [],
      "name": "WithdrawEvent",
      "type": "event"
    },
    {
      "inputs": [
        {
          "internalType": "uint256",
          "name": "_requestId",
          "type": "uint256"
        },
        {
          "internalType": "address",
          "name": "_winningProvider",
          "type": "address"
        }
      ],
      "name": "arbitorPicksWinner",
      "outputs": [],
      "stateMutability": "nonpayable",
      "type": "function"
    },
    {
      "inputs": [
        {
          "internalType": "uint256",
          "name": "_requestId",
          "type": "uint256"
        }
      ],
      "name": "dispute",
      "outputs": [],
      "stateMutability": "payable",
      "type": "function"
    },
    {
      "inputs": [
        {
          "internalType": "uint256",
          "name": "_requestId",
          "type": "uint256"
        }
      ],
      "name": "getDeadlines",
      "outputs": [
        {
          "internalType": "uint256",
          "name": "",
          "type": "uint256"
        },
        {
          "internalType": "uint256",
          "name": "",
          "type": "uint256"
        },
        {
          "internalType": "uint256",
          "name": "",
          "type": "uint256"
        },
        {
          "internalType": "uint256",
          "name": "",
          "type": "uint256"
        },
        {
          "internalType": "uint256",
          "name": "",
          "type": "uint256"
        },
        {
          "internalType": "uint256",
          "name": "",
          "type": "uint256"
        }
      ],
      "stateMutability": "view",
      "type": "function"
    },
    {
      "inputs": [
        {
          "internalType": "uint256",
          "name": "_requestId",
          "type": "uint256"
        }
      ],
      "name": "getRequest",
      "outputs": [
        {
          "components": [
            {
              "components": [
                {
                  "internalType": "uint256",
                  "name": "basic",
                  "type": "uint256"
                },
                {
                  "internalType": "uint256",
                  "name": "initiator",
                  "type": "uint256"
                },
                {
                  "internalType": "uint256",
                  "name": "dispute",
                  "type": "uint256"
                },
                {
                  "internalType": "uint256",
                  "name": "arbitration",
                  "type": "uint256"
                },
                {
                  "internalType": "uint256",
                  "name": "payout",
                  "type": "uint256"
                }
              ],
              "internalType": "struct InformationMarket.Deadlines",
              "name": "deadlines",
              "type": "tuple"
            },
            {
              "components": [
                {
                  "internalType": "address payable",
                  "name": "initiatorAddress",
                  "type": "address"
                },
                {
                  "internalType": "string",
                  "name": "content",
                  "type": "string"
                },
                {
                  "internalType": "uint256",
                  "name": "reward",
                  "type": "uint256"
                },
                {
                  "internalType": "uint256",
                  "name": "initiatorDeposit",
                  "type": "uint256"
                },
                {
                  "internalType": "uint256",
                  "name": "informationIdCounter",
                  "type": "uint256"
                }
              ],
              "internalType": "struct InformationMarket.Basic",
              "name": "basic",
              "type": "tuple"
            },
            {
              "components": [
                {
                  "internalType": "address payable",
                  "name": "winnerByInitiator",
                  "type": "address"
                }
              ],
              "internalType": "struct InformationMarket.Initiator",
              "name": "initiator",
              "type": "tuple"
            },
            {
              "components": [
                {
                  "internalType": "address payable",
                  "name": "disputingProvider",
                  "type": "address"
                },
                {
                  "internalType": "uint256",
                  "name": "providerDeposit",
                  "type": "uint256"
                }
              ],
              "internalType": "struct InformationMarket.Dispute",
              "name": "dispute",
              "type": "tuple"
            },
            {
              "components": [
                {
                  "internalType": "address payable",
                  "name": "assignedArbitor",
                  "type": "address"
                },
                {
                  "internalType": "address payable",
                  "name": "winnerByArbitration",
                  "type": "address"
                }
              ],
              "internalType": "struct InformationMarket.Arbitration",
              "name": "arbitration",
              "type": "tuple"
            },
            {
              "internalType": "bool",
              "name": "requestClosed",
              "type": "bool"
            }
          ],
          "internalType": "struct InformationMarket.Request",
          "name": "",
          "type": "tuple"
        },
        {
          "components": [
            {
              "internalType": "address payable",
              "name": "provider",
              "type": "address"
            },
            {
              "internalType": "string",
              "name": "content",
              "type": "string"
            }
          ],
          "internalType": "struct InformationMarket.Information[]",
          "name": "",
          "type": "tuple[]"
        },
        {
          "components": [
            {
              "components": [
                {
                  "internalType": "address",
                  "name": "arbitorAddress",
                  "type": "address"
                },
                {
                  "internalType": "uint256",
                  "name": "arbitorId",
                  "type": "uint256"
                },
                {
                  "internalType": "uint256",
                  "name": "provisionaryReward",
                  "type": "uint256"
                }
              ],
              "internalType": "struct InformationMarket.ArbitorArbitration",
              "name": "arbitration",
              "type": "tuple"
            },
            {
              "components": [
                {
                  "internalType": "uint256",
                  "name": "casesHandled",
                  "type": "uint256"
                },
                {
                  "internalType": "uint256",
                  "name": "timestampLastCase",
                  "type": "uint256"
                },
                {
                  "internalType": "uint256",
                  "name": "stakedBalance",
                  "type": "uint256"
                },
                {
                  "internalType": "uint256",
                  "name": "assignedCaseId",
                  "type": "uint256"
                }
              ],
              "internalType": "struct InformationMarket.ArbitorSlashing",
              "name": "slashing",
              "type": "tuple"
            }
          ],
          "internalType": "struct InformationMarket.Arbitor",
          "name": "",
          "type": "tuple"
        }
      ],
      "stateMutability": "view",
      "type": "function"
    },
    {
      "inputs": [
        {
          "internalType": "uint256",
          "name": "_requestId",
          "type": "uint256"
        }
      ],
      "name": "payout",
      "outputs": [],
      "stateMutability": "nonpayable",
      "type": "function"
    },
    {
      "inputs": [
        {
          "internalType": "uint256",
          "name": "_requestId",
          "type": "uint256"
        },
        {
          "internalType": "address payable",
          "name": "_winnerAddress",
          "type": "address"
        }
      ],
      "name": "pickWinner",
      "outputs": [],
      "stateMutability": "nonpayable",
      "type": "function"
    },
    {
      "inputs": [],
      "name": "register",
      "outputs": [],
      "stateMutability": "payable",
      "type": "function"
    },
    {
      "inputs": [
        {
          "internalType": "string",
          "name": "_requestContent",
          "type": "string"
        },
        {
          "internalType": "uint256",
          "name": "_deadline",
          "type": "uint256"
        }
      ],
      "name": "request",
      "outputs": [],
      "stateMutability": "payable",
      "type": "function"
    },
    {
      "inputs": [],
      "name": "requestIdCounter",
      "outputs": [
        {
          "internalType": "uint256",
          "name": "",
          "type": "uint256"
        }
      ],
      "stateMutability": "view",
      "type": "function"
    },
    {
      "inputs": [
        {
          "internalType": "uint256",
          "name": "",
          "type": "uint256"
        }
      ],
      "name": "requests",
      "outputs": [
        {
          "components": [
            {
              "internalType": "uint256",
              "name": "basic",
              "type": "uint256"
            },
            {
              "internalType": "uint256",
              "name": "initiator",
              "type": "uint256"
            },
            {
              "internalType": "uint256",
              "name": "dispute",
              "type": "uint256"
            },
            {
              "internalType": "uint256",
              "name": "arbitration",
              "type": "uint256"
            },
            {
              "internalType": "uint256",
              "name": "payout",
              "type": "uint256"
            }
          ],
          "internalType": "struct InformationMarket.Deadlines",
          "name": "deadlines",
          "type": "tuple"
        },
        {
          "components": [
            {
              "internalType": "address payable",
              "name": "initiatorAddress",
              "type": "address"
            },
            {
              "internalType": "string",
              "name": "content",
              "type": "string"
            },
            {
              "internalType": "uint256",
              "name": "reward",
              "type": "uint256"
            },
            {
              "internalType": "uint256",
              "name": "initiatorDeposit",
              "type": "uint256"
            },
            {
              "internalType": "uint256",
              "name": "informationIdCounter",
              "type": "uint256"
            }
          ],
          "internalType": "struct InformationMarket.Basic",
          "name": "basic",
          "type": "tuple"
        },
        {
          "components": [
            {
              "internalType": "address payable",
              "name": "winnerByInitiator",
              "type": "address"
            }
          ],
          "internalType": "struct InformationMarket.Initiator",
          "name": "initiator",
          "type": "tuple"
        },
        {
          "components": [
            {
              "internalType": "address payable",
              "name": "disputingProvider",
              "type": "address"
            },
            {
              "internalType": "uint256",
              "name": "providerDeposit",
              "type": "uint256"
            }
          ],
          "internalType": "struct InformationMarket.Dispute",
          "name": "dispute",
          "type": "tuple"
        },
        {
          "components": [
            {
              "internalType": "address payable",
              "name": "assignedArbitor",
              "type": "address"
            },
            {
              "internalType": "address payable",
              "name": "winnerByArbitration",
              "type": "address"
            }
          ],
          "internalType": "struct InformationMarket.Arbitration",
          "name": "arbitration",
          "type": "tuple"
        },
        {
          "internalType": "bool",
          "name": "requestClosed",
          "type": "bool"
        }
      ],
      "stateMutability": "view",
      "type": "function"
    },
    {
      "inputs": [
        {
          "internalType": "uint256",
          "name": "_newRandomNumber",
          "type": "uint256"
        }
      ],
      "name": "setRandomNumber",
      "outputs": [],
      "stateMutability": "nonpayable",
      "type": "function"
    },
    {
      "inputs": [
        {
          "internalType": "string",
          "name": "_informationContent",
          "type": "string"
        },
        {
          "internalType": "uint256",
          "name": "_requestId",
          "type": "uint256"
        }
      ],
      "name": "submitInformation",
      "outputs": [],
      "stateMutability": "nonpayable",
      "type": "function"
    },
    {
      "inputs": [],
      "name": "test",
      "outputs": [
        {
          "internalType": "uint256",
          "name": "",
          "type": "uint256"
        }
      ],
      "stateMutability": "pure",
      "type": "function"
    },
    {
      "inputs": [],
      "name": "withdraw",
      "outputs": [],
      "stateMutability": "nonpayable",
      "type": "function"
    }
  ],
  "bytecode": "0x60806040523480156200001157600080fd5b5060405162003ffd38038062003ffd8339818101604052810190620000379190620000b4565b336000806101000a81548173ffffffffffffffffffffffffffffffffffffffff021916908373ffffffffffffffffffffffffffffffffffffffff160217905550836001819055508260098190555081600281905550806003819055505050505062000144565b600081519050620000ae816200012a565b92915050565b60008060008060808587031215620000cb57600080fd5b6000620000db878288016200009d565b9450506020620000ee878288016200009d565b935050604062000101878288016200009d565b925050606062000114878288016200009d565b91505092959194509250565b6000819050919050565b620001358162000120565b81146200014157600080fd5b50565b613ea980620001546000396000f3fe6080604052600436106100dd5760003560e01c8063c58343ef1161007f578063dc6ad19e11610059578063dc6ad19e14610288578063e1152343146102a4578063f1275663146102cd578063f8a8fd6d146102f6576100dd565b8063c58343ef146101f7578063c93767f514610236578063d6bfea281461025f576100dd565b806386d6282c116100bb57806386d6282c146101455780638db5888a14610161578063923123861461018c578063a6845dbf146101ce576100dd565b80631aa3a008146100e25780633ccfd60b146100ec57806381d12c5814610103575b600080fd5b6100ea610321565b005b3480156100f857600080fd5b5061010161054c565b005b34801561010f57600080fd5b5061012a60048036038101906101259190612c56565b610587565b60405161013c969594939291906135f2565b60405180910390f35b61015f600480360381019061015a9190612c56565b61089c565b005b34801561016d57600080fd5b50610176610d03565b60405161018391906136a3565b60405180910390f35b34801561019857600080fd5b506101b360048036038101906101ae9190612c56565b610d09565b6040516101c5969594939291906136ee565b60405180910390f35b3480156101da57600080fd5b506101f560048036038101906101f09190612c02565b610dce565b005b34801561020357600080fd5b5061021e60048036038101906102199190612c56565b610ff4565b60405161022d9392919061365d565b60405180910390f35b34801561024257600080fd5b5061025d60048036038101906102589190612cbb565b6116a6565b005b34801561026b57600080fd5b5061028660048036038101906102819190612c56565b611964565b005b6102a2600480360381019061029d9190612c02565b611a2a565b005b3480156102b057600080fd5b506102cb60048036038101906102c69190612c56565b611c5e565b005b3480156102d957600080fd5b506102f460048036038101906102ef9190612c7f565b6123f6565b005b34801561030257600080fd5b5061030b61274a565b60405161031891906136a3565b60405180910390f35b600954341015610366576040517f08c379a000000000000000000000000000000000000000000000000000000000815260040161035d90613592565b60405180910390fd5b600073ffffffffffffffffffffffffffffffffffffffff16600b60003373ffffffffffffffffffffffffffffffffffffffff1673ffffffffffffffffffffffffffffffffffffffff16815260200190815260200160002060000160000160009054906101000a900473ffffffffffffffffffffffffffffffffffffffff1673ffffffffffffffffffffffffffffffffffffffff161461043a576040517f08c379a000000000000000000000000000000000000000000000000000000000815260040161043190613492565b60405180910390fd5b6000600b60003373ffffffffffffffffffffffffffffffffffffffff1673ffffffffffffffffffffffffffffffffffffffff1681526020019081526020016000209050338160000160000160006101000a81548173ffffffffffffffffffffffffffffffffffffffff021916908373ffffffffffffffffffffffffffffffffffffffff160217905550600a54816000016001018190555034816003016002018190555033600c6000600a54815260200190815260200160002060006101000a81548173ffffffffffffffffffffffffffffffffffffffff021916908373ffffffffffffffffffffffffffffffffffffffff160217905550600a600081548092919061054490613a1f565b919050555050565b600073ffffffffffffffffffffffffffffffffffffffff163373ffffffffffffffffffffffffffffffffffffffff161461058557600080fd5b565b6005602052806000526040600020600091509050806000016040518060a00160405290816000820154815260200160018201548152602001600282015481526020016003820154815260200160048201548152505090806005016040518060a00160405290816000820160009054906101000a900473ffffffffffffffffffffffffffffffffffffffff1673ffffffffffffffffffffffffffffffffffffffff1673ffffffffffffffffffffffffffffffffffffffff168152602001600182018054610652906139bc565b80601f016020809104026020016040519081016040528092919081815260200182805461067e906139bc565b80156106cb5780601f106106a0576101008083540402835291602001916106cb565b820191906000526020600020905b8154815290600101906020018083116106ae57829003601f168201915b5050505050815260200160028201548152602001600382015481526020016004820154815250509080600a016040518060200160405290816000820160009054906101000a900473ffffffffffffffffffffffffffffffffffffffff1673ffffffffffffffffffffffffffffffffffffffff1673ffffffffffffffffffffffffffffffffffffffff16815250509080600b016040518060400160405290816000820160009054906101000a900473ffffffffffffffffffffffffffffffffffffffff1673ffffffffffffffffffffffffffffffffffffffff1673ffffffffffffffffffffffffffffffffffffffff1681526020016001820154815250509080600d016040518060400160405290816000820160009054906101000a900473ffffffffffffffffffffffffffffffffffffffff1673ffffffffffffffffffffffffffffffffffffffff1673ffffffffffffffffffffffffffffffffffffffff1681526020016001820160009054906101000a900473ffffffffffffffffffffffffffffffffffffffff1673ffffffffffffffffffffffffffffffffffffffff1673ffffffffffffffffffffffffffffffffffffffff16815250509080600f0160009054906101000a900460ff16905086565b806005600082815260200190815260200160002060000160010154421180156108de575060056000828152602001908152602001600020600001600201544211155b61091d576040517f08c379a0000000000000000000000000000000000000000000000000000000008152600401610914906135d2565b60405180910390fd5b6000600560008381526020019081526020016000206005016004015411610979576040517f08c379a000000000000000000000000000000000000000000000000000000000815260040161097090613472565b60405180910390fd5b8160011515600860003373ffffffffffffffffffffffffffffffffffffffff1673ffffffffffffffffffffffffffffffffffffffff168152602001908152602001600020600083815260200190815260200160002060009054906101000a900460ff161515146109e857600080fd5b600073ffffffffffffffffffffffffffffffffffffffff1660056000858152602001908152602001600020600b0160000160009054906101000a900473ffffffffffffffffffffffffffffffffffffffff1673ffffffffffffffffffffffffffffffffffffffff1614610a90576040517f08c379a0000000000000000000000000000000000000000000000000000000008152600401610a8790613512565b60405180910390fd5b600073ffffffffffffffffffffffffffffffffffffffff1660056000858152602001908152602001600020600a0160000160009054906101000a900473ffffffffffffffffffffffffffffffffffffffff1673ffffffffffffffffffffffffffffffffffffffff1614610b7c576005600084815260200190815260200160002060050160030154341015610b59576040517f08c379a0000000000000000000000000000000000000000000000000000000008152600401610b50906134f2565b60405180910390fd5b3460056000858152602001908152602001600020600b0160010181905550610bc0565b60003414610bbf576040517f08c379a0000000000000000000000000000000000000000000000000000000008152600401610bb690613452565b60405180910390fd5b5b3360056000858152602001908152602001600020600b0160000160006101000a81548173ffffffffffffffffffffffffffffffffffffffff021916908373ffffffffffffffffffffffffffffffffffffffff1602179055506000610c22612753565b905083600b60008373ffffffffffffffffffffffffffffffffffffffff1673ffffffffffffffffffffffffffffffffffffffff168152602001908152602001600020600301600301819055508060056000868152602001908152602001600020600d0160000160006101000a81548173ffffffffffffffffffffffffffffffffffffffff021916908373ffffffffffffffffffffffffffffffffffffffff1602179055507f6cb74efd1c8287efd4dd1e87e050b2af8c2b0fd7791b181e9f940fb62108cdd984604051610cf591906136a3565b60405180910390a150505050565b60045481565b60008060008060008060004290506000600560008a81526020019081526020016000206000016000015490506000600560008b81526020019081526020016000206000016001015490506000600560008c81526020019081526020016000206000016002015490506000600560008d81526020019081526020016000206000016003015490506000600560008e81526020019081526020016000206000016004015490508585858585859b509b509b509b509b509b5050505050505091939550919395565b806005600082815260200190815260200160002060000160000154421115610e2b576040517f08c379a0000000000000000000000000000000000000000000000000000000008152600401610e22906135d2565b60405180910390fd5b610e3361289a565b83816020018190525033816000019073ffffffffffffffffffffffffffffffffffffffff16908173ffffffffffffffffffffffffffffffffffffffff16815250506000600560008581526020019081526020016000206005016004015490508160076000868152602001908152602001600020600083815260200190815260200160002060008201518160000160006101000a81548173ffffffffffffffffffffffffffffffffffffffff021916908373ffffffffffffffffffffffffffffffffffffffff1602179055506020820151816001019080519060200190610f1a9291906128ca565b509050506001600860003373ffffffffffffffffffffffffffffffffffffffff1673ffffffffffffffffffffffffffffffffffffffff168152602001908152602001600020600086815260200190815260200160002060006101000a81548160ff021916908315150217905550600560008581526020019081526020016000206005016004016000815480929190610fb190613a1f565b91905055507f6cb74efd1c8287efd4dd1e87e050b2af8c2b0fd7791b181e9f940fb62108cdd984604051610fe591906136a3565b60405180910390a15050505050565b610ffc612950565b60606110066129a6565b60006005600086815260200190815260200160002060050160040154905060008167ffffffffffffffff811115611066577f4e487b7100000000000000000000000000000000000000000000000000000000600052604160045260246000fd5b60405190808252806020026020018201604052801561109f57816020015b61108c61289a565b8152602001906001900390816110845790505b50905060005b8281101561121b576007600088815260200190815260200160002060008281526020019081526020016000206040518060400160405290816000820160009054906101000a900473ffffffffffffffffffffffffffffffffffffffff1673ffffffffffffffffffffffffffffffffffffffff1673ffffffffffffffffffffffffffffffffffffffff168152602001600182018054611142906139bc565b80601f016020809104026020016040519081016040528092919081815260200182805461116e906139bc565b80156111bb5780601f10611190576101008083540402835291602001916111bb565b820191906000526020600020905b81548152906001019060200180831161119e57829003601f168201915b5050505050815250508282815181106111fd577f4e487b7100000000000000000000000000000000000000000000000000000000600052603260045260246000fd5b6020026020010181905250808061121390613a1f565b9150506110a5565b506005600087815260200190815260200160002081600b6000600560008b8152602001908152602001600020600d0160000160009054906101000a900473ffffffffffffffffffffffffffffffffffffffff1673ffffffffffffffffffffffffffffffffffffffff1673ffffffffffffffffffffffffffffffffffffffff168152602001908152602001600020826040518060c0016040529081600082016040518060a0016040529081600082015481526020016001820154815260200160028201548152602001600382015481526020016004820154815250508152602001600582016040518060a00160405290816000820160009054906101000a900473ffffffffffffffffffffffffffffffffffffffff1673ffffffffffffffffffffffffffffffffffffffff1673ffffffffffffffffffffffffffffffffffffffff168152602001600182018054611370906139bc565b80601f016020809104026020016040519081016040528092919081815260200182805461139c906139bc565b80156113e95780601f106113be576101008083540402835291602001916113e9565b820191906000526020600020905b8154815290600101906020018083116113cc57829003601f168201915b5050505050815260200160028201548152602001600382015481526020016004820154815250508152602001600a82016040518060200160405290816000820160009054906101000a900473ffffffffffffffffffffffffffffffffffffffff1673ffffffffffffffffffffffffffffffffffffffff1673ffffffffffffffffffffffffffffffffffffffff16815250508152602001600b82016040518060400160405290816000820160009054906101000a900473ffffffffffffffffffffffffffffffffffffffff1673ffffffffffffffffffffffffffffffffffffffff1673ffffffffffffffffffffffffffffffffffffffff1681526020016001820154815250508152602001600d82016040518060400160405290816000820160009054906101000a900473ffffffffffffffffffffffffffffffffffffffff1673ffffffffffffffffffffffffffffffffffffffff1673ffffffffffffffffffffffffffffffffffffffff1681526020016001820160009054906101000a900473ffffffffffffffffffffffffffffffffffffffff1673ffffffffffffffffffffffffffffffffffffffff1673ffffffffffffffffffffffffffffffffffffffff16815250508152602001600f820160009054906101000a900460ff161515151581525050925080604051806040016040529081600082016040518060600160405290816000820160009054906101000a900473ffffffffffffffffffffffffffffffffffffffff1673ffffffffffffffffffffffffffffffffffffffff1673ffffffffffffffffffffffffffffffffffffffff1681526020016001820154815260200160028201548152505081526020016003820160405180608001604052908160008201548152602001600182015481526020016002820154815260200160038201548152505081525050905094509450945050509193909250565b816005600082815260200190815260200160002060000160000154421180156116e8575060056000828152602001908152602001600020600001600101544211155b611727576040517f08c379a000000000000000000000000000000000000000000000000000000000815260040161171e906135d2565b60405180910390fd5b6000600560008381526020019081526020016000206005016004015411611783576040517f08c379a000000000000000000000000000000000000000000000000000000000815260040161177a90613472565b60405180910390fd5b826005600082815260200190815260200160002060050160000160009054906101000a900473ffffffffffffffffffffffffffffffffffffffff1673ffffffffffffffffffffffffffffffffffffffff163373ffffffffffffffffffffffffffffffffffffffff161461182b576040517f08c379a0000000000000000000000000000000000000000000000000000000008152600401611822906134b2565b60405180910390fd5b60011515600860008573ffffffffffffffffffffffffffffffffffffffff1673ffffffffffffffffffffffffffffffffffffffff168152602001908152602001600020600086815260200190815260200160002060009054906101000a900460ff161515146118cf576040517f08c379a00000000000000000000000000000000000000000000000000000000081526004016118c690613552565b60405180910390fd5b8260056000868152602001908152602001600020600a0160000160006101000a81548173ffffffffffffffffffffffffffffffffffffffff021916908373ffffffffffffffffffffffffffffffffffffffff1602179055507f6cb74efd1c8287efd4dd1e87e050b2af8c2b0fd7791b181e9f940fb62108cdd98460405161195691906136a3565b60405180910390a150505050565b8060008054906101000a900473ffffffffffffffffffffffffffffffffffffffff1673ffffffffffffffffffffffffffffffffffffffff163373ffffffffffffffffffffffffffffffffffffffff16146119f3576040517f08c379a00000000000000000000000000000000000000000000000000000000081526004016119ea90613572565b60405180910390fd5b816002819055507f79262c381501a7e1ad2593277691d964e31d329c654d73fbc2a1b107f494613860405160405180910390a15050565b6000600560006004548152602001908152602001600020905082816005016001019080519060200190611a5e9291906128ca565b5060018054611a6d91906138ec565b60015434611a7b9190613861565b611a859190613892565b816005016002018190555060015434611a9e9190613861565b8160050160030181905550338160050160000160006101000a81548173ffffffffffffffffffffffffffffffffffffffff021916908373ffffffffffffffffffffffffffffffffffffffff1602179055508142611afb919061380b565b8160000160000181905550603c600354611b159190613892565b8160000160000154611b27919061380b565b81600001600101819055506078600354611b419190613892565b8160000160000154611b53919061380b565b816000016002018190555060b4600354611b6d9190613892565b8160000160000154611b7f919061380b565b816000016003018190555060f0600354611b999190613892565b8160000160000154611bab919061380b565b8160000160040181905550600454600660003373ffffffffffffffffffffffffffffffffffffffff1673ffffffffffffffffffffffffffffffffffffffff1681526020019081526020016000208190555060046000815480929190611c0f90613a1f565b91905055507f6cb74efd1c8287efd4dd1e87e050b2af8c2b0fd7791b181e9f940fb62108cdd96001600454611c4491906138ec565b604051611c5191906136a3565b60405180910390a1505050565b8060056000828152602001908152602001600020600001600301544211611cba576040517f08c379a0000000000000000000000000000000000000000000000000000000008152600401611cb1906135d2565b60405180910390fd5b6000151560056000848152602001908152602001600020600f0160009054906101000a900460ff16151514611d24576040517f08c379a0000000000000000000000000000000000000000000000000000000008152600401611d1b906134d2565b60405180910390fd5b60006005600084815260200190815260200160002060050160040154905060006005600085815260200190815260200160002060050160000160009054906101000a900473ffffffffffffffffffffffffffffffffffffffff169050600060076000868152602001908152602001600020600080815260200190815260200160002060000160009054906101000a900473ffffffffffffffffffffffffffffffffffffffff169050600060056000878152602001908152602001600020600a0160000160009054906101000a900473ffffffffffffffffffffffffffffffffffffffff169050600060056000888152602001908152602001600020600b0160000160009054906101000a900473ffffffffffffffffffffffffffffffffffffffff169050600060056000898152602001908152602001600020600d0160010160009054906101000a900473ffffffffffffffffffffffffffffffffffffffff1690506000600560008a8152602001908152602001600020600d0160000160009054906101000a900473ffffffffffffffffffffffffffffffffffffffff1690506000600560008b81526020019081526020016000206005016003015490506000600560008c8152602001908152602001600020600b016001015490506000600560008d815260200190815260200160002060050160020154905060008a1415611f73578873ffffffffffffffffffffffffffffffffffffffff166108fc849081150290604051600060405180830381858888f19350505050158015611f6d573d6000803e3d6000fd5b50612382565b60018a141561200f578873ffffffffffffffffffffffffffffffffffffffff166108fc849081150290604051600060405180830381858888f19350505050158015611fc2573d6000803e3d6000fd5b508773ffffffffffffffffffffffffffffffffffffffff166108fc829081150290604051600060405180830381858888f19350505050158015612009573d6000803e3d6000fd5b50612381565b600073ffffffffffffffffffffffffffffffffffffffff168673ffffffffffffffffffffffffffffffffffffffff16146122f1578673ffffffffffffffffffffffffffffffffffffffff168573ffffffffffffffffffffffffffffffffffffffff1614156121c3576000600560008e8152602001908152602001600020600b01600101819055508873ffffffffffffffffffffffffffffffffffffffff166108fc849081150290604051600060405180830381858888f193505050501580156120dc573d6000803e3d6000fd5b506000600560008e8152602001908152602001600020600501600201819055508673ffffffffffffffffffffffffffffffffffffffff166108fc829081150290604051600060405180830381858888f19350505050158015612142573d6000803e3d6000fd5b506000600560008e8152602001908152602001600020600b016001018190555081600b60008673ffffffffffffffffffffffffffffffffffffffff1673ffffffffffffffffffffffffffffffffffffffff16815260200190815260200160002060000160020160008282546121b7919061380b565b925050819055506122ec565b82600b60008673ffffffffffffffffffffffffffffffffffffffff1673ffffffffffffffffffffffffffffffffffffffff1681526020019081526020016000206000016002016000828254612218919061380b565b925050819055506000600560008e8152602001908152602001600020600b01600101819055508573ffffffffffffffffffffffffffffffffffffffff166108fc839081150290604051600060405180830381858888f19350505050158015612284573d6000803e3d6000fd5b506000600560008e8152602001908152602001600020600501600201819055508473ffffffffffffffffffffffffffffffffffffffff166108fc829081150290604051600060405180830381858888f193505050501580156122ea573d6000803e3d6000fd5b505b612380565b8873ffffffffffffffffffffffffffffffffffffffff166108fc849081150290604051600060405180830381858888f19350505050158015612337573d6000803e3d6000fd5b508673ffffffffffffffffffffffffffffffffffffffff166108fc829081150290604051600060405180830381858888f1935050505015801561237e573d6000803e3d6000fd5b505b5b5b6001600560008e8152602001908152602001600020600f0160006101000a81548160ff0219169083151502179055507f6cb74efd1c8287efd4dd1e87e050b2af8c2b0fd7791b181e9f940fb62108cdd98c6040516123e091906136a3565b60405180910390a1505050505050505050505050565b81612436426040518060400160405280600981526020017f74696d657374616d7000000000000000000000000000000000000000000000008152506127d5565b61248e60056000838152602001908152602001600020600001600201546040518060400160405280600781526020017f64697370757465000000000000000000000000000000000000000000000000008152506127d5565b6124e660056000838152602001908152602001600020600001600301546040518060400160405280600b81526020017f6172626974726174696f6e0000000000000000000000000000000000000000008152506127d5565b600073ffffffffffffffffffffffffffffffffffffffff1660056000838152602001908152602001600020600b0160000160009054906101000a900473ffffffffffffffffffffffffffffffffffffffff1673ffffffffffffffffffffffffffffffffffffffff16141561258f576040517f08c379a000000000000000000000000000000000000000000000000000000000815260040161258690613532565b60405180910390fd5b6005600082815260200190815260200160002060000160020154421180156125d0575060056000828152602001908152602001600020600001600301544211155b61260f576040517f08c379a0000000000000000000000000000000000000000000000000000000008152600401612606906135d2565b60405180910390fd5b3373ffffffffffffffffffffffffffffffffffffffff1660056000858152602001908152602001600020600d0160000160009054906101000a900473ffffffffffffffffffffffffffffffffffffffff1673ffffffffffffffffffffffffffffffffffffffff16146126b6576040517f08c379a00000000000000000000000000000000000000000000000000000000081526004016126ad906135b2565b60405180910390fd5b8160056000858152602001908152602001600020600d0160010160006101000a81548173ffffffffffffffffffffffffffffffffffffffff021916908373ffffffffffffffffffffffffffffffffffffffff1602179055507f6cb74efd1c8287efd4dd1e87e050b2af8c2b0fd7791b181e9f940fb62108cdd98360405161273d91906136a3565b60405180910390a1505050565b6000600a905090565b6000600a8054106127ae5760006002549050600c6000600a54836127779190613861565b815260200190815260200160002060009054906101000a900473ffffffffffffffffffffffffffffffffffffffff169150506127d2565b60008054906101000a900473ffffffffffffffffffffffffffffffffffffffff1690505b90565b61286d82826040516024016127eb9291906136be565b6040516020818303038152906040527f0fa3f345000000000000000000000000000000000000000000000000000000007bffffffffffffffffffffffffffffffffffffffffffffffffffffffff19166020820180517bffffffffffffffffffffffffffffffffffffffffffffffffffffffff8381831617835250505050612871565b5050565b60008151905060006a636f6e736f6c652e6c6f679050602083016000808483855afa5050505050565b6040518060400160405280600073ffffffffffffffffffffffffffffffffffffffff168152602001606081525090565b8280546128d6906139bc565b90600052602060002090601f0160209004810192826128f8576000855561293f565b82601f1061291157805160ff191683800117855561293f565b8280016001018555821561293f579182015b8281111561293e578251825591602001919060010190612923565b5b50905061294c91906129cc565b5090565b6040518060c001604052806129636129e9565b8152602001612970612a18565b815260200161297d612a5d565b815260200161298a612a86565b8152602001612997612ab6565b81526020016000151581525090565b60405180604001604052806129b9612afc565b81526020016129c6612b33565b81525090565b5b808211156129e55760008160009055506001016129cd565b5090565b6040518060a0016040528060008152602001600081526020016000815260200160008152602001600081525090565b6040518060a00160405280600073ffffffffffffffffffffffffffffffffffffffff168152602001606081526020016000815260200160008152602001600081525090565b6040518060200160405280600073ffffffffffffffffffffffffffffffffffffffff1681525090565b6040518060400160405280600073ffffffffffffffffffffffffffffffffffffffff168152602001600081525090565b6040518060400160405280600073ffffffffffffffffffffffffffffffffffffffff168152602001600073ffffffffffffffffffffffffffffffffffffffff1681525090565b6040518060600160405280600073ffffffffffffffffffffffffffffffffffffffff16815260200160008152602001600081525090565b6040518060800160405280600081526020016000815260200160008152602001600081525090565b6000612b6e612b6984613774565b61374f565b905082815260208101848484011115612b8657600080fd5b612b9184828561397a565b509392505050565b600081359050612ba881613e2e565b92915050565b600081359050612bbd81613e45565b92915050565b600082601f830112612bd457600080fd5b8135612be4848260208601612b5b565b91505092915050565b600081359050612bfc81613e5c565b92915050565b60008060408385031215612c1557600080fd5b600083013567ffffffffffffffff811115612c2f57600080fd5b612c3b85828601612bc3565b9250506020612c4c85828601612bed565b9150509250929050565b600060208284031215612c6857600080fd5b6000612c7684828501612bed565b91505092915050565b60008060408385031215612c9257600080fd5b6000612ca085828601612bed565b9250506020612cb185828601612b99565b9150509250929050565b60008060408385031215612cce57600080fd5b6000612cdc85828601612bed565b9250506020612ced85828601612bae565b9150509250929050565b6000612d038383613333565b905092915050565b612d1481613932565b82525050565b612d2381613920565b82525050565b6000612d34826137b5565b612d3e81856137d8565b935083602082028501612d50856137a5565b8060005b85811015612d8c5784840389528151612d6d8582612cf7565b9450612d78836137cb565b925060208a01995050600181019050612d54565b50829750879550505050505092915050565b612da781613944565b82525050565b612db681613944565b82525050565b6000612dc7826137c0565b612dd181856137e9565b9350612de1818560208601613989565b612dea81613b24565b840191505092915050565b6000612e00826137c0565b612e0a81856137fa565b9350612e1a818560208601613989565b612e2381613b24565b840191505092915050565b6000612e3b6018836137fa565b9150612e4682613b35565b602082019050919050565b6000612e5e6020836137fa565b9150612e6982613b5e565b602082019050919050565b6000612e816027836137fa565b9150612e8c82613b87565b604082019050919050565b6000612ea46029836137fa565b9150612eaf82613bd6565b604082019050919050565b6000612ec76016836137fa565b9150612ed282613c25565b602082019050919050565b6000612eea6014836137fa565b9150612ef582613c4e565b602082019050919050565b6000612f0d6027836137fa565b9150612f1882613c77565b604082019050919050565b6000612f306016836137fa565b9150612f3b82613cc6565b602082019050919050565b6000612f536024836137fa565b9150612f5e82613cef565b604082019050919050565b6000612f766026836137fa565b9150612f8182613d3e565b604082019050919050565b6000612f996038836137fa565b9150612fa482613d8d565b604082019050919050565b6000612fbc601b836137fa565b9150612fc782613ddc565b602082019050919050565b6000612fdf6017836137fa565b9150612fea82613e05565b602082019050919050565b60608201600082015161300b6000850182612d1a565b50602082015161301e6020850182613434565b5060408201516130316040850182613434565b50505050565b60808201600082015161304d6000850182613434565b5060208201516130606020850182613434565b5060408201516130736040850182613434565b5060608201516130866060850182613434565b50505050565b60e0820160008201516130a26000850182612ff5565b5060208201516130b56060850182613037565b50505050565b6040820160008201516130d16000850182612d0b565b5060208201516130e46020850182612d0b565b50505050565b6040820160008201516131006000850182612d0b565b5060208201516131136020850182612d0b565b50505050565b600060a0830160008301516131316000860182612d0b565b50602083015184820360208601526131498282612dbc565b915050604083015161315e6040860182613434565b5060608301516131716060860182613434565b5060808301516131846080860182613434565b508091505092915050565b600060a0830160008301516131a76000860182612d0b565b50602083015184820360208601526131bf8282612dbc565b91505060408301516131d46040860182613434565b5060608301516131e76060860182613434565b5060808301516131fa6080860182613434565b508091505092915050565b60a08201600082015161321b6000850182613434565b50602082015161322e6020850182613434565b5060408201516132416040850182613434565b5060608201516132546060850182613434565b5060808201516132676080850182613434565b50505050565b60a0820160008201516132836000850182613434565b5060208201516132966020850182613434565b5060408201516132a96040850182613434565b5060608201516132bc6060850182613434565b5060808201516132cf6080850182613434565b50505050565b6040820160008201516132eb6000850182612d0b565b5060208201516132fe6020850182613434565b50505050565b60408201600082015161331a6000850182612d0b565b50602082015161332d6020850182613434565b50505050565b600060408301600083015161334b6000860182612d0b565b50602083015184820360208601526133638282612dbc565b9150508091505092915050565b6020820160008201516133866000850182612d0b565b50505050565b6020820160008201516133a26000850182612d0b565b50505050565b6000610180830160008301516133c16000860182613205565b50602083015184820360a08601526133d98282613119565b91505060408301516133ee60c0860182613370565b50606083015161340160e08601826132d5565b5060808301516134156101208601826130bb565b5060a0830151613429610160860182612d9e565b508091505092915050565b61343d81613970565b82525050565b61344c81613970565b82525050565b6000602082019050818103600083015261346b81612e2e565b9050919050565b6000602082019050818103600083015261348b81612e51565b9050919050565b600060208201905081810360008301526134ab81612e74565b9050919050565b600060208201905081810360008301526134cb81612e97565b9050919050565b600060208201905081810360008301526134eb81612eba565b9050919050565b6000602082019050818103600083015261350b81612edd565b9050919050565b6000602082019050818103600083015261352b81612f00565b9050919050565b6000602082019050818103600083015261354b81612f23565b9050919050565b6000602082019050818103600083015261356b81612f46565b9050919050565b6000602082019050818103600083015261358b81612f69565b9050919050565b600060208201905081810360008301526135ab81612f8c565b9050919050565b600060208201905081810360008301526135cb81612faf565b9050919050565b600060208201905081810360008301526135eb81612fd2565b9050919050565b600061018082019050613608600083018961326d565b81810360a083015261361a818861318f565b905061362960c083018761338c565b61363660e0830186613304565b6136446101208301856130ea565b613652610160830184612dad565b979650505050505050565b600061012082019050818103600083015261367881866133a8565b9050818103602083015261368c8185612d29565b905061369b604083018461308c565b949350505050565b60006020820190506136b86000830184613443565b92915050565b60006040820190506136d36000830185613443565b81810360208301526136e58184612df5565b90509392505050565b600060c0820190506137036000830189613443565b6137106020830188613443565b61371d6040830187613443565b61372a6060830186613443565b6137376080830185613443565b61374460a0830184613443565b979650505050505050565b600061375961376a565b905061376582826139ee565b919050565b6000604051905090565b600067ffffffffffffffff82111561378f5761378e613af5565b5b61379882613b24565b9050602081019050919050565b6000819050602082019050919050565b600081519050919050565b600081519050919050565b6000602082019050919050565b600082825260208201905092915050565b600082825260208201905092915050565b600082825260208201905092915050565b600061381682613970565b915061382183613970565b9250827fffffffffffffffffffffffffffffffffffffffffffffffffffffffffffffffff0382111561385657613855613a68565b5b828201905092915050565b600061386c82613970565b915061387783613970565b92508261388757613886613a97565b5b828204905092915050565b600061389d82613970565b91506138a883613970565b9250817fffffffffffffffffffffffffffffffffffffffffffffffffffffffffffffffff04831182151516156138e1576138e0613a68565b5b828202905092915050565b60006138f782613970565b915061390283613970565b92508282101561391557613914613a68565b5b828203905092915050565b600061392b82613950565b9050919050565b600061393d82613950565b9050919050565b60008115159050919050565b600073ffffffffffffffffffffffffffffffffffffffff82169050919050565b6000819050919050565b82818337600083830152505050565b60005b838110156139a757808201518184015260208101905061398c565b838111156139b6576000848401525b50505050565b600060028204905060018216806139d457607f821691505b602082108114156139e8576139e7613ac6565b5b50919050565b6139f782613b24565b810181811067ffffffffffffffff82111715613a1657613a15613af5565b5b80604052505050565b6000613a2a82613970565b91507fffffffffffffffffffffffffffffffffffffffffffffffffffffffffffffffff821415613a5d57613a5c613a68565b5b600182019050919050565b7f4e487b7100000000000000000000000000000000000000000000000000000000600052601160045260246000fd5b7f4e487b7100000000000000000000000000000000000000000000000000000000600052601260045260246000fd5b7f4e487b7100000000000000000000000000000000000000000000000000000000600052602260045260246000fd5b7f4e487b7100000000000000000000000000000000000000000000000000000000600052604160045260246000fd5b6000601f19601f8301169050919050565b7f66756e6374696f6e206973206672656520746f2063616c6c0000000000000000600082015250565b7f6e6f20696e666f726d6174696f6e20686173206265656e2070726f7669646564600082015250565b7f796f752061726520616c72656164792072656769737472656420617320616e2060008201527f61726269746f7200000000000000000000000000000000000000000000000000602082015250565b7f796f7520617265206e6f742074686520696e69746961746f72206f662074686960008201527f7320726571756573740000000000000000000000000000000000000000000000602082015250565b7f4361736520697320616c726561647920636c6f73656400000000000000000000600082015250565b7f6465706f73697420697320746f6f20736d616c6c000000000000000000000000600082015250565b7f646973707574696e672070726f76696465722068617320616c7265616279206260008201527f65656e2073657400000000000000000000000000000000000000000000000000602082015250565b7f7468657265206973206e6f742061206469737075746500000000000000000000600082015250565b7f746861742070726f7669646572206164647265737320646f6573206e6f74206560008201527f7869737400000000000000000000000000000000000000000000000000000000602082015250565b7f796f7520617265206e6f7420746865206f776e6572206f66207468697320636f60008201527f6e74726163740000000000000000000000000000000000000000000000000000602082015250565b7f796f75206861766520746f20706179206d6f7265207468616e2074686174207460008201527f6f20726567697374657220617320616e2061726269746f720000000000000000602082015250565b7f61737369676e65642061726269746f7220697320636f72726563740000000000600082015250565b7f696e636f72726563742074696d6520696e74657276616c000000000000000000600082015250565b613e3781613920565b8114613e4257600080fd5b50565b613e4e81613932565b8114613e5957600080fd5b50565b613e6581613970565b8114613e7057600080fd5b5056fea264697066735822122011ce56460a4aab29eaa648283796bafbe65dedfcd04874b6020356f027a3d8e764736f6c63430008040033",
  "linkReferences": {},
  "deployedLinkReferences": {}
}